:030000000208767D
:0C087600787FE4F6D8FD7581780208BD9B
:0C0D04000268000002660000026C0000A3
:100DCE0075A892758921758C3C758AB0D28C758DFB
:100DDE00FD758BFDD29CC29FD29ED28E121019121F
:100DEE000FBC120FA3120F33120A14120FD51209D1
:100DFE008C120437E56B6403456A70F212090280A7
:010E0E00EDF6
:03000B00020E0FD3
:100E0F00C0E0758C3C758AB00567E56770020566B2
:100E1F00641445667018056DE56D7002056C640409
:100E2F00456C7004F56CF56D756600756700856C23
:070E3F006A856D6BD0E03203
:100E4600E4FDFCC3ED9FEE6480F8EC6480985015D9
:100E5600E4FBFA0BBB00010AEB64784A70F50DBDA2
:050E660000010C80DE1C
:010E6B002264
:100E6C00E4FDFCC3ED9FEE6480F8EC6480985015B3
:100E7C00E4FBFA0BBB00010AEB640C4A70F50DBDE8
:050E8C0000010C80DEF6
:010E9100223E
:10101900AFA0EF541FF5A04490F5A07580FF53A031
:021029001F2284
:100FA300AFA0EF541FF5A044B0F5A07580AF7F024A
:090FB3007E00120E4653A01F221D
:100FBC00AFA0EF541FF5A044D0F5A075A0FF7F02A1
:090FCC007E00120E4653A01F2204
:03000300DFFE22FB
:10000E00D2947F01120003C2947FFA120003D2949D
:05001E007F64020003F5
:100EB500E4FD7E08C29400EDC313FDD2947F0112B8
:100EC50000033094034305807F0A120003DEE5AF7B
:010ED5000517
:010ED60022F9
:020F1500AE0725
:100F17007D08C29400EE1392947F0A120003D294C4
:0B0F2700EEC313FE7F01120003DDE7A4
:010F3200229C
:1007E20012000E7FCC120F157F44120F1512000E4D
:1007F2007FCC120F157FBE120F15120EB5AB07126A
:100802000EB5E48F78F577F576F575AE77AD76AC03
:100812007578081203568F788E778D768C75AF03B4
:10082200EF4578F578E577F577E576F576E575F5D0
:1008320075AF78AE77AD76FC120224E4FBFA7980CC
:10084200783D12011E8F718E708D6F8C6EE4FFFEEB
:100852007D207C41AB71AA70A96FA86E12011EE4C3
:10086200FBFAF9783F12002D1202628F788E778D93
:03087200768C750C
:010875002260
:100D100002130000020A00010258000101500006FF
:0F0D200026000000000000060C80828486888C6C
:100A14007F8012103D7F3212104C7F3012104C7FB9
:100A24003012104C7F3012104C7F2D12104C7F303E
:100A340012104C7F3012104C7F2D12104C7F30124C
:100A4400104C7F3012104C7FC012103D7F301210BA
:100A54004C7F3012104C7F2D12104C7F3012104CF2
:100A64007F3012104C7F2D12104C7F3012104C7FAF
:090A74003012104C7FC002103D4D
:100FD500E4F552740C2552F8E6FFE4FD120FEE0518
:090FE50052E552C3940640EB22D0
:1005E400E4FD7F8E120FEE7F8112102B8F08E50839
:1005F400540FF515E508C4540FF516E4FD7F8E126B
:100604000FEE7F8312102B8F09751710E509540F15
:10061400F518E509C4540FF519E4FD7F8E120FEEA9
:100624007F8512102B8F25751A10E525540FF51BA5
:10063400E525C4540FF51CE4FD7F8E120FEE7F8771
:1006440012102B8F24E524540FF51DE524C4540FF8
:10065400F51EE4FD7F8E120FEE7F8912102B8F1290
:10066400E512540FF51FE512C4540FF520E4FD7F85
:100674008E120FEE7F8D12102B8F23E523540FF56E
:1006840021E523C4540FF5227F8012103D7F3212DE
:10069400104C7F3012104CE5222430FF12104CE530
:1006A400212430FF12104C7F2D12104CE5202430F1
:1006B400FF12104CE51F2430FF12104C7F2D121036
:1006C4004CE51E2430FF12104CE51D2430FF12109F
:1006D4004C7FC012103DE51C2430FF12104CE51B6A
:1006E4002430FF12104C7F2D12104CE5192430FFDA
:1006F40012104CE5182430FF12104C7F2D12104CB0
:10070400E5162430FF12104CE5152430FF12104C6E
:050714007FC002103D52
:100719007F8012103D7F3212104C7F3012104CE551
:100729005775F00A842430FF12104CE55775F00A0A
:1007390084E5F02430FF12104C7F2D12104CE55641
:1007490075F00A842430FF12104CE55675F00A84BE
:10075900E5F02430FF12104C7F2D12104CE5557531
:10076900F00A842430FF12104CE55575F00A84E52F
:10077900F02430FF12104C7FC012103DE55475F083
:100789000A842430FF12104CE55475F00A84E5F010
:100799002430FF12104C7F2D12104CE55375F00ACE
:1007A900842430FF12104CE55375F00A84E5F024D7
:1007B90030FF12104C7F2D12104CE55175F00A8450
:1007C9002430FF12104CE55175F00A84E5F024300D
:0907D900FF12104C7FC002103D1C
:100902001207E2E48F4F8E4EF54DF54C7FCB12105D
:100912003DE47B64FAF9F8AF4FAE4EAD4DAC4C12EC
:100922000D48EF2430FF12104CE47B64FAF9F8AF63
:100932004FAE4EAD4DAC4C120D48AC00AD01AE0207
:10094200AF03E47B0AFAF9F8120D48EF2430FF12E4
:10095200104C7F2E12104CE47B64FAF9F8AF4FAEC4
:100962004EAD4DAC4C120D48AC00AD01AE02AF0322
:10097200E47B0AFAF9F8120D48EB2430FF12104C0E
:0A0982007F4312104C7FC002103DAD
:10098C001207E2E48F4B8E4AF549F5487B64FAF97D
:10099C00F8AD49AC48120D48AC00AD01AE02AF0346
:1009AC00E47B0AFAF9F8120D48C004C005C006C071
:1009BC0007E47B64FAF9F8AF4BAE4AAD49AC481288
:1009CC000D48E47B0AFAF9F81202E3D003D002D006
:1009DC0001D000EF2BFFEE3AFEED39FDEC38FCE4D4
:1009EC007B19FAF9F8D3120340AFA0EF541F500B48
:1009FC00F5A044B0F5A075806F8009F5A044B0F562
:080A0C00A075800F53A01F220A
:100A7D00757401E4F552E5522574FF25E0242CF838
:100A8D0008E675F00AA4FEEF25E0242EF808E62E00
:100A9D00FF746E2552F8A607C374059552240CF801
:100AAD00E6FF746E2552F8E6FE75F00A84C454F024
:100ABD00FDEE75F00A84E5F04DFD120FEE0574E5BF
:100ACD0074B407037574010552E552C3940640A62C
:010ADD0022F6
:1004370020B3227F287E00120E4620B31830B3FD6A
:10044700050BE50B7002050A6403450A70ECF50A13
:10045700750B0180E5E50B6401450A700F1205E491
:1004670020B203120A7D755800755901E50B640225
:10047700450A60030205E320B2217F28FE120E46DB
:1004870020B21830B2FD0559E559700205586408C5
:10049700455870ECF55875590180E5E559640145F3
:1004A700587026120ADE8F518551261207197F1EB2
:1004B7007E00120E467FC612103D7F2F12104C7F12
:1004C7002F12104C7FC012103DE559640245587039
:1004D70026120B2E8F538553271207197F1E7E0076
:1004E700120E467FC312103D7F2F12104C7F2F1222
:1004F700104C7FC012103DE5596403455870261211
:100507000B7E8F548554281207197F1E7E00120E0A
:10051700467FC012103D7F2F12104C7F2F12104CB8
:100527007FC012103DE55964044558701F120BCE69
:100537008F558555291207197F8812103D7F2F1275
:10054700104C7F2F12104C7FC012103DE5596405E7
:100557004558701F120C1E8F5685562A1207197F91
:100567008512103D7F2F12104C7F2F12104C7FC029
:1005770012103DE559640645587029120C6E8F57C5
:1005870085572B1207197F8012103D7F2F12104CB1
:100597007F2F12104C7F2F12104C7F2F12104C7F81
:1005A700C012103DE55964074558703020B02DF54D
:1005B70052740C2552F8E6FF74262552F8E6FE75AC
:1005C700F00A84C454F0FDEE75F00A84E5F04DFDA1
:0D05D700120FEE0552E552C3940640D522E6
:03002300020CBE0E
:100CBE00C0E0C0D075D000C000C006C00730982B71
:100CCE00C298AF99EF24D0FFE434FFFEE51425E07F
:100CDE00242CF8A60608A6070514E51470020513C1
:100CEE00640D45137005F513751401D007D006D0A9
:060CFE0000D0D0D0E0326E
:100D2F0002620000025E000002600000025C000030
:080D3F00025A000002640000EA
:100ADE0020B1217F147E00120E4620B11730B1FDD9
:100AEE000563E56370020562643C456270ECF56275
:100AFE00F56380E620B0267F147E00120E4620B0ED
:100B0E001C30B0FDE563156370021562C3E56264C7
:100B1E0080948050E975620075633B80E1AF63227B
:100B2E0020B1217F147E00120E4620B11730B1FD88
:100B3E000561E56170020560643C456070ECF5602E
:100B4E00F56180E620B0267F147E00120E4620B09E
:100B5E001C30B0FDE561156170021560C3E560647F
:100B6E0080948050E975600075613B80E1AF612231
:100B7E0020B1217F147E00120E4620B11730B1FD38
:100B8E00055FE55F7002055E6418455E70ECF55E0C
:100B9E00F55F80E620B0267F147E00120E4620B050
:100BAE001C30B0FDE55F155F7002155EC3E55E6437
:100BBE0080948050E9755E00755F1780E1AF5F220B
:100BCE0020B1217F147E00120E4620B11730B1FDE8
:100BDE00055DE55D7002055C6420455C70ECF55CBE
:100BEE00F55D80E620B0267F147E00120E4620B002
:100BFE001C30B0FDE55D155D7002155CC3E55C64EF
:100C0E0080948050E9755C00755D1F80E1AF5D22B8
:100C1E0020B1217F147E00120E4620B11730B1FD97
:100C2E00055BE55B7002055A640D455A70ECF55A8A
:100C3E00F55B80E620B0267F147E00120E4620B0B3
:100C4E001C30B0FDE55B155B7002155AC3E55A64A6
:100C5E0080948050E9755A00755B0C80E1AF5B2281
:100C6E0020B1217F147E00120E4620B11730B1FD47
:100C7E000565E565700205646433456470ECF564E2
:100C8E00F56580E620B0267F147E00120E4620B059
:100C9E001C30B0FDE565156570021564C3E564642E
:100CAE0080948050E975640075653180E1AF6522EE
:100F6D00C297E4FEEF30E004D2A38002C2A3D29771
:0A0F7D00C297EFC313FF0EBE08EA8F
:010F87002247
:100F8800E4FFFEEFC313FF30A3054307808003533C
:0A0F9800077FD297C2970EBE08E94A
:010FA200222C
:100FEE00AE07C293C297D2935306FEAF06120F6D91
:080FFE00AF05120F6DC2932232
:10102B00C293C297D293430701120F6D120F88C25E
:01103B009321
:01103C002291
:10100600D2A1D2A00000000000C2A1000000000092
:03101600C2A02253
:0C105B00C2A1D2A00000000000D2A1221F
:100ED700EF6004C2A18002D2A10000000000D2A0EE
:0F0EE7000000000000C2A0D2A100000000002205
:100F5100D2A10000000000D2A0000000000030A1DA
:0C0F610007C2A012105BC322C2A0D32262
:100E9200E4FEEF30E704D2A18002C2A1000000000C
:100EA20000D2A0EF25E0FF0000000000C2A00EBEAD
:020EB20008E056
:010EB400221B
:100EF600E4FED2A00000000000EF25E0FF30A103D1
:0E0F0600430701C2A000000000000EBE08E478
:010F140022BA
:100D8C00C2A18B807F017E00120DB5D2927F057EB1
:100D9C0000120DB5C292EBC454F0F5807F017E00B9
:090DAC00120DB5D2927F057E0004
:100DB500D3EF9400EE9400400F7DC77C01DCFEDD8F
:080DC500FAEF1F70EB1E80E83D
:010DCD002203
:0F103D00AB077580FFC292C2A0120D8CC2922227
:0F104C00AB077580FFC292D2A0120D8CC2922208
:100F33007F3212103D7F2812103D7F0C12103D7F2F
:0E0F43000612103D7F0112103D7F8002103D0E
:100026000202CEE86480F8E933E83360110460F038
:10003600ED33EC337009E8FCE9FDEAFEEBFF220440
:1000460060DED3EB9FEA9EE99DE8C2E78CF0C2F73B
:1000560095F0400CE8CCF8E9CDF9EACEFAEBCFFB07
:1000660012029985D0F05804700320D5B3E80470C5
:10007600075002B2D50202D892D5EC0460F7E4CC60
:10008600C0E0C398F8603B94186008400DD0E0FBD0
:100096000202B0E4FBFAC9FC8028E830E406E4C9B1
:1000A600FBE4CAFCE830E305E4C9CACBFCE8540724
:1000B6006010F8C3E913F9EA13FAEB13FBEC13FC2F
:1000C600D8F130F52FC3E49CFCEF9BFFEE9AFEEDD2
:1000D60099FDD0E0FBEF4E4D4C701222DB0302027D
:1000E600D5EC2CFCEF33FFEE33FEED33FDED30E7C0
:1000F600EB0202B0EF2BFFEE3AFEED39FDD0E0FB4E
:1001060050130BBB00030202D8ED13FDEE13FEEFF6
:0801160013FFEC13FC0202B020
:10011E00EC4D6011E8497017ED33EC3304600DE4DB
:10012E00FCFFFEFD22E933E8330470F80202CE1222
:10013E00029958046009E4CC248150062850090223
:10014E0002D82840030202D5C0E0EB4A7044B980C1
:10015E0006D0E0FB0202C4EF4E701CBD8008EBFF20
:10016E00EAFEE9FD80EBE98DF0A4FEE5F002020760
:10017E00E9CDF9EAFEEBFFEF89F0A4FCE5F0CE89BC
:10018E00F0A42EFFE435F0CD89F0A42DFEE435F079
:10019E008067EF4E7005BD80D780C3EF8BF0A4ACA7
:1001AE00F0EE8BF0A42CFCE435F0F8EF8AF0A42CE2
:1001BE00E5F038FCE433CB8DF0A42CFCE5F03BF8F5
:1001CE00EE8AF0A42CFCE5F038F8E433CF89F0A4E5
:1001DE002CFCE5F038CF3400CE89F0A42FFFE5F0EB
:1001EE003EFEE433C98DF0A42EFEE5F039CD8AF043
:1001FE00A42FFFE5F03EFEE43DFD33D0E0FB5007BB
:10020E000BBB000F0202D8EC2CFCEF33FFEE33FEDB
:06021E00ED33FD0202B009
:1002240075F020800E75F010800575F0087D007E55
:10023400007F003392D530D503120332EC334010E3
:10024400EF33FFEE33FEED33FDEC33FCD5F0ED225E
:0E025400E5F0247EA2D513CC92E7CDCEFF229A
:10026200EDD2E7CD33EC3392D524814006E4FFFE94
:10027200FDFC22FCE4CFCECDCC24E0501174FF80F3
:10028200EDC3CC13CCCD13CDCE13CECF13CF047090
:07029200F030D5DE0203325B
:10029900E9D2E7C933E833F892D5EDD2E7CD33ECAB
:0702A90033FC5002B2D52224
:1002B000EC30E7100FBF000C0EBE00080DBD0004AF
:1002C0000BEB6014A2D5EB13FCED92E7FD2274FF5B
:1002D000FCFDFEFF22E480F8A2D574FF13FC7D80B4
:0302E000E480EFC8
:10088200020DCEE493A3F8E493A34003F68001F2B1
:1008920008DFF48029E493A3F85407240CC8C33377
:1008A200C4540F4420C8834004F456800146F6DF46
:1008B200E4800B0102040810204080900D04E47EC5
:1008C200019360BCA3FF543F30E509541FFEE4933B
:1008D200A360010ECF54C025E060A840B8E493A302
:1008E200FAE493A3F8E493A3C8C582C8CAC583CA2D
:1008F200F0A3C8C582C8CAC583CADFE9DEE780BEE5
:010D470000AB
:1002E300E88FF0A4CC8BF0A42CFCE98EF0A42CFCBA
:1002F3008AF0EDA42CFCEA8EF0A4CDA8F08BF0A438
:100303002DCC3825F0FDE98FF0A42CCD35F0FCEB96
:100313008EF0A4FEA9F0EB8FF0A4CFC5F02ECD395B
:0F032300FEE43CFCEAA42DCE35F0FDE43CFC22C8
:100D4800C2D5E830E70FB2D5E4C39BFBE49AFAE4D6
:100D580099F9E498F8EC30E717B2D5120D7E120332
:100D6800A5E4C39BFBE49AFAE499F9E498F88003B4
:100D78001203A530D50DE4C39FFFE49EFEE49DFD5C
:040D8800E49CFC22C9
:0E033200C3E49FFFE49EFEE49DFDE49CFC22DC
:10034000EB9FF5F0EA9E42F0E99D42F0EC6480C834
:0603500064809845F022D4
:10035600E8600FEFC333FFEE33FEED33FDEC33FC05
:03036600D8F122A9
:1003690075F008758200EF2FFFEE33FECD33CDCC4B
:1003790033CCC58233C5829BED9AEC99E5829840CE
:100389000CF582EE9BFEED9AFDEC99FC0FD5F0D6AB
:10039900E4CEFBE4CDFAE4CCF9A88222B800C1B9D5
:1003A9000059BA002DEC8BF084CFCECDFCE5F0CB13
:1003B900F97818EF2FFFEE33FEED33FDEC33FCEB4C
:1003C90033FB10D703994004EB99FB0FD8E5E4F907
:1003D900FA227818EF2FFFEE33FEED33FDEC33FCF4
:1003E900C933C910D7059BE99A4007EC9BFCE99AE8
:1003F900F90FD8E0E4C9FAE4CCFB2275F010EF2F2D
:10040900FFEE33FEED33FDCC33CCC833C810D7072C
:100419009BEC9AE899400AED9BFDEC9AFCE899F867
:0E0429000FD5F0DAE4CDFBE4CCFAE4C8F922FA
:00000001FF
